{
  "address": "0x5159A4414d86491c70f3060e35687269aF7c597e",
  "abi": [
    {
      "inputs": [
        {
          "internalType": "string",
          "name": "_hello",
          "type": "string"
        }
      ],
      "stateMutability": "nonpayable",
      "type": "constructor"
    },
    {
      "anonymous": false,
      "inputs": [
        {
          "indexed": false,
          "internalType": "uint256",
          "name": "timestamp",
          "type": "uint256"
        }
      ],
      "name": "test",
      "type": "event"
    },
    {
      "inputs": [],
      "name": "N",
      "outputs": [
        {
          "internalType": "uint256",
          "name": "",
          "type": "uint256"
        }
      ],
      "stateMutability": "view",
      "type": "function"
    },
    {
      "inputs": [],
      "name": "hello",
      "outputs": [
        {
          "internalType": "string",
          "name": "",
          "type": "string"
        }
      ],
      "stateMutability": "view",
      "type": "function"
    },
    {
      "inputs": [],
      "name": "lastCaller",
      "outputs": [
        {
          "internalType": "address",
          "name": "",
          "type": "address"
        }
      ],
      "stateMutability": "view",
      "type": "function"
    },
    {
      "inputs": [
        {
          "internalType": "uint256",
          "name": "_N",
          "type": "uint256"
        }
      ],
      "name": "setN",
      "outputs": [],
      "stateMutability": "nonpayable",
      "type": "function"
    }
  ],
  "transactionHash": "0x334701351a4157e01703acc8dffc7d777fe8c8251405e8866dc0bb0a8d87649f",
  "args": [
    "world"
  ],
  "solcInputHash": "ef94a457544b8f5b7b0981381664dc3c",
  "bytecode": "0x608060405234801561001057600080fd5b5060405161048938038061048983398101604081905261002f91610115565b805161004290600090602084019061007c565b506040514281527f29e99f07d14aa8d30a12fa0b0789b43183ba1bf6b4a72b95459a3e397cca10d79060200160405180910390a150610235565b828054610088906101e4565b90600052602060002090601f0160209004810192826100aa57600085556100f0565b82601f106100c357805160ff19168380011785556100f0565b828001600101855582156100f0579182015b828111156100f05782518255916020019190600101906100d5565b506100fc929150610100565b5090565b5b808211156100fc5760008155600101610101565b6000602080838503121561012857600080fd5b82516001600160401b038082111561013f57600080fd5b818501915085601f83011261015357600080fd5b8151818111156101655761016561021f565b604051601f8201601f19908116603f0116810190838211818310171561018d5761018d61021f565b8160405282815288868487010111156101a557600080fd5b600093505b828410156101c757848401860151818501870152928501926101aa565b828411156101d85760008684830101525b98975050505050505050565b600181811c908216806101f857607f821691505b6020821081141561021957634e487b7160e01b600052602260045260246000fd5b50919050565b634e487b7160e01b600052604160045260246000fd5b610245806102446000396000f3fe608060405234801561001057600080fd5b506004361061004c5760003560e01c806319ff1d21146100515780632113522a1461006f5780633f7a02701461009a578063c9e525df146100c1575b600080fd5b6100596100d8565b604051610066919061017f565b60405180910390f35b600154610082906001600160a01b031681565b6040516001600160a01b039091168152602001610066565b6100bf6100a8366004610166565b600255600180546001600160a01b03191633179055565b005b6100ca60025481565b604051908152602001610066565b600080546100e5906101d4565b80601f0160208091040260200160405190810160405280929190818152602001828054610111906101d4565b801561015e5780601f106101335761010080835404028352916020019161015e565b820191906000526020600020905b81548152906001019060200180831161014157829003601f168201915b505050505081565b60006020828403121561017857600080fd5b5035919050565b600060208083528351808285015260005b818110156101ac57858101830151858201604001528201610190565b818111156101be576000604083870101525b50601f01601f1916929092016040019392505050565b600181811c908216806101e857607f821691505b6020821081141561020957634e487b7160e01b600052602260045260246000fd5b5091905056fea26469706673582212204c12b5fcfebc50cace82079d752382e1eb733605f12d8d055a60914aef54e68264736f6c63430008070033",
  "devdoc": {
    "kind": "dev",
    "methods": {},
    "version": 1
  },
  "userdoc": {
    "kind": "user",
    "methods": {},
    "version": 1
  },
  "storageLayout": {
    "storage": [
      {
        "astId": 3,
        "contract": "contracts/HelloWorld.sol:HelloWorld",
        "label": "hello",
        "offset": 0,
        "slot": "0",
        "type": "t_string_storage"
      },
      {
        "astId": 5,
        "contract": "contracts/HelloWorld.sol:HelloWorld",
        "label": "lastCaller",
        "offset": 0,
        "slot": "1",
        "type": "t_address"
      },
      {
        "astId": 7,
        "contract": "contracts/HelloWorld.sol:HelloWorld",
        "label": "N",
        "offset": 0,
        "slot": "2",
        "type": "t_uint256"
      }
    ],
    "types": {
      "t_address": {
        "encoding": "inplace",
        "label": "address",
        "numberOfBytes": "20"
      },
      "t_string_storage": {
        "encoding": "bytes",
        "label": "string",
        "numberOfBytes": "32"
      },
      "t_uint256": {
        "encoding": "inplace",
        "label": "uint256",
        "numberOfBytes": "32"
      }
    }
  }
}